{
  "address": "0x3c394CC739A4A0Df8C54365F1eBE5Ec0e4e8eCa1",
  "abi": [
    {
      "inputs": [],
      "stateMutability": "nonpayable",
      "type": "constructor"
    },
    {
      "anonymous": false,
      "inputs": [
        {
          "indexed": true,
          "internalType": "address",
          "name": "owner",
          "type": "address"
        },
        {
          "indexed": true,
          "internalType": "address",
          "name": "approved",
          "type": "address"
        },
        {
          "indexed": true,
          "internalType": "uint256",
          "name": "tokenId",
          "type": "uint256"
        }
      ],
      "name": "Approval",
      "type": "event"
    },
    {
      "anonymous": false,
      "inputs": [
        {
          "indexed": true,
          "internalType": "address",
          "name": "owner",
          "type": "address"
        },
        {
          "indexed": true,
          "internalType": "address",
          "name": "operator",
          "type": "address"
        },
        {
          "indexed": false,
          "internalType": "bool",
          "name": "approved",
          "type": "bool"
        }
      ],
      "name": "ApprovalForAll",
      "type": "event"
    },
    {
      "anonymous": false,
      "inputs": [
        {
          "indexed": true,
          "internalType": "address",
          "name": "previousOwner",
          "type": "address"
        },
        {
          "indexed": true,
          "internalType": "address",
          "name": "newOwner",
          "type": "address"
        }
      ],
      "name": "OwnershipTransferred",
      "type": "event"
    },
    {
      "anonymous": false,
      "inputs": [
        {
          "indexed": true,
          "internalType": "address",
          "name": "from",
          "type": "address"
        },
        {
          "indexed": true,
          "internalType": "address",
          "name": "to",
          "type": "address"
        },
        {
          "indexed": true,
          "internalType": "uint256",
          "name": "tokenId",
          "type": "uint256"
        }
      ],
      "name": "Transfer",
      "type": "event"
    },
    {
      "inputs": [
        {
          "internalType": "address",
          "name": "to",
          "type": "address"
        },
        {
          "internalType": "uint256",
          "name": "tokenId",
          "type": "uint256"
        }
      ],
      "name": "approve",
      "outputs": [],
      "stateMutability": "nonpayable",
      "type": "function"
    },
    {
      "inputs": [
        {
          "internalType": "address",
          "name": "owner",
          "type": "address"
        }
      ],
      "name": "balanceOf",
      "outputs": [
        {
          "internalType": "uint256",
          "name": "",
          "type": "uint256"
        }
      ],
      "stateMutability": "view",
      "type": "function"
    },
    {
      "inputs": [
        {
          "internalType": "uint256",
          "name": "",
          "type": "uint256"
        }
      ],
      "name": "color",
      "outputs": [
        {
          "internalType": "bytes3",
          "name": "",
          "type": "bytes3"
        }
      ],
      "stateMutability": "view",
      "type": "function"
    },
    {
      "inputs": [
        {
          "internalType": "uint256",
          "name": "tokenId",
          "type": "uint256"
        }
      ],
      "name": "getApproved",
      "outputs": [
        {
          "internalType": "address",
          "name": "",
          "type": "address"
        }
      ],
      "stateMutability": "view",
      "type": "function"
    },
    {
      "inputs": [
        {
          "internalType": "uint256",
          "name": "id",
          "type": "uint256"
        }
      ],
      "name": "getPropertiesById",
      "outputs": [
        {
          "internalType": "string",
          "name": "leftEarColor",
          "type": "string"
        },
        {
          "internalType": "string",
          "name": "rightEarColor",
          "type": "string"
        },
        {
          "internalType": "string",
          "name": "faceStrokeColor1",
          "type": "string"
        },
        {
          "internalType": "string",
          "name": "faceStrokeColor2",
          "type": "string"
        },
        {
          "internalType": "string",
          "name": "leftEyeColor",
          "type": "string"
        },
        {
          "internalType": "string",
          "name": "rightEyeColor",
          "type": "string"
        },
        {
          "internalType": "string",
          "name": "noseColor",
          "type": "string"
        },
        {
          "internalType": "string",
          "name": "mouthColor",
          "type": "string"
        },
        {
          "internalType": "uint256",
          "name": "mouthSize",
          "type": "uint256"
        },
        {
          "internalType": "uint256",
          "name": "earSize",
          "type": "uint256"
        },
        {
          "internalType": "uint256",
          "name": "noseSize",
          "type": "uint256"
        },
        {
          "internalType": "bool",
          "name": "tiltHead",
          "type": "bool"
        }
      ],
      "stateMutability": "view",
      "type": "function"
    },
    {
      "inputs": [
        {
          "internalType": "address",
          "name": "owner",
          "type": "address"
        },
        {
          "internalType": "address",
          "name": "operator",
          "type": "address"
        }
      ],
      "name": "isApprovedForAll",
      "outputs": [
        {
          "internalType": "bool",
          "name": "",
          "type": "bool"
        }
      ],
      "stateMutability": "view",
      "type": "function"
    },
    {
      "inputs": [],
      "name": "mintItem",
      "outputs": [
        {
          "internalType": "uint256",
          "name": "",
          "type": "uint256"
        }
      ],
      "stateMutability": "payable",
      "type": "function"
    },
    {
      "inputs": [
        {
          "internalType": "uint256",
          "name": "",
          "type": "uint256"
        }
      ],
      "name": "mouthWidth",
      "outputs": [
        {
          "internalType": "uint256",
          "name": "",
          "type": "uint256"
        }
      ],
      "stateMutability": "view",
      "type": "function"
    },
    {
      "inputs": [],
      "name": "name",
      "outputs": [
        {
          "internalType": "string",
          "name": "",
          "type": "string"
        }
      ],
      "stateMutability": "view",
      "type": "function"
    },
    {
      "inputs": [],
      "name": "owner",
      "outputs": [
        {
          "internalType": "address",
          "name": "",
          "type": "address"
        }
      ],
      "stateMutability": "view",
      "type": "function"
    },
    {
      "inputs": [
        {
          "internalType": "uint256",
          "name": "tokenId",
          "type": "uint256"
        }
      ],
      "name": "ownerOf",
      "outputs": [
        {
          "internalType": "address",
          "name": "",
          "type": "address"
        }
      ],
      "stateMutability": "view",
      "type": "function"
    },
    {
      "inputs": [
        {
          "internalType": "uint256",
          "name": "id",
          "type": "uint256"
        }
      ],
      "name": "renderTokenById",
      "outputs": [
        {
          "internalType": "string",
          "name": "",
          "type": "string"
        }
      ],
      "stateMutability": "view",
      "type": "function"
    },
    {
      "inputs": [],
      "name": "renounceOwnership",
      "outputs": [],
      "stateMutability": "nonpayable",
      "type": "function"
    },
    {
      "inputs": [
        {
          "internalType": "address",
          "name": "from",
          "type": "address"
        },
        {
          "internalType": "address",
          "name": "to",
          "type": "address"
        },
        {
          "internalType": "uint256",
          "name": "tokenId",
          "type": "uint256"
        }
      ],
      "name": "safeTransferFrom",
      "outputs": [],
      "stateMutability": "nonpayable",
      "type": "function"
    },
    {
      "inputs": [
        {
          "internalType": "address",
          "name": "from",
          "type": "address"
        },
        {
          "internalType": "address",
          "name": "to",
          "type": "address"
        },
        {
          "internalType": "uint256",
          "name": "tokenId",
          "type": "uint256"
        },
        {
          "internalType": "bytes",
          "name": "data",
          "type": "bytes"
        }
      ],
      "name": "safeTransferFrom",
      "outputs": [],
      "stateMutability": "nonpayable",
      "type": "function"
    },
    {
      "inputs": [
        {
          "internalType": "address",
          "name": "operator",
          "type": "address"
        },
        {
          "internalType": "bool",
          "name": "approved",
          "type": "bool"
        }
      ],
      "name": "setApprovalForAll",
      "outputs": [],
      "stateMutability": "nonpayable",
      "type": "function"
    },
    {
      "inputs": [
        {
          "internalType": "bytes4",
          "name": "interfaceId",
          "type": "bytes4"
        }
      ],
      "name": "supportsInterface",
      "outputs": [
        {
          "internalType": "bool",
          "name": "",
          "type": "bool"
        }
      ],
      "stateMutability": "view",
      "type": "function"
    },
    {
      "inputs": [],
      "name": "symbol",
      "outputs": [
        {
          "internalType": "string",
          "name": "",
          "type": "string"
        }
      ],
      "stateMutability": "view",
      "type": "function"
    },
    {
      "inputs": [
        {
          "internalType": "uint256",
          "name": "index",
          "type": "uint256"
        }
      ],
      "name": "tokenByIndex",
      "outputs": [
        {
          "internalType": "uint256",
          "name": "",
          "type": "uint256"
        }
      ],
      "stateMutability": "view",
      "type": "function"
    },
    {
      "inputs": [
        {
          "internalType": "address",
          "name": "owner",
          "type": "address"
        },
        {
          "internalType": "uint256",
          "name": "index",
          "type": "uint256"
        }
      ],
      "name": "tokenOfOwnerByIndex",
      "outputs": [
        {
          "internalType": "uint256",
          "name": "",
          "type": "uint256"
        }
      ],
      "stateMutability": "view",
      "type": "function"
    },
    {
      "inputs": [
        {
          "internalType": "uint256",
          "name": "id",
          "type": "uint256"
        }
      ],
      "name": "tokenURI",
      "outputs": [
        {
          "internalType": "string",
          "name": "",
          "type": "string"
        }
      ],
      "stateMutability": "view",
      "type": "function"
    },
    {
      "inputs": [],
      "name": "totalSupply",
      "outputs": [
        {
          "internalType": "uint256",
          "name": "",
          "type": "uint256"
        }
      ],
      "stateMutability": "view",
      "type": "function"
    },
    {
      "inputs": [
        {
          "internalType": "address",
          "name": "from",
          "type": "address"
        },
        {
          "internalType": "address",
          "name": "to",
          "type": "address"
        },
        {
          "internalType": "uint256",
          "name": "tokenId",
          "type": "uint256"
        }
      ],
      "name": "transferFrom",
      "outputs": [],
      "stateMutability": "nonpayable",
      "type": "function"
    },
    {
      "inputs": [
        {
          "internalType": "address",
          "name": "newOwner",
          "type": "address"
        }
      ],
      "name": "transferOwnership",
      "outputs": [],
      "stateMutability": "nonpayable",
      "type": "function"
    }
  ],
  "transactionHash": "0x63b96e7963398483d18d54cb8eca9688a16941ea87b0f84f2c55988e718b647b",
  "args": [],
  "numDeployments": 1,
  "solcInputHash": "a07cdb86a55a84f7f0a48ca4fe3af7cb",
  "bytecode": "0x6080346200037e576001600160401b03906040908082018381118282101762000368578252600b81526020906a4f6850616e64614d454d4560a81b82820152825193838501858110828211176200036857845260038552624f504d60e81b83860152815181811162000368576000938454916001948584811c941680156200035d575b8385101462000349578190601f94858111620002f6575b5083908583116001146200029257889262000286575b5050600019600383901b1c191690851b1785555b8651928311620002725783548481811c9116801562000267575b8282101462000253578281116200020b575b5080918311600114620001a457508394958293949262000198575b5050600019600383901b1c191690821b1790555b600a8054336001600160a01b0319821681179092559251926001600160a01b03167f8be0079c531659141344cd1fd0a4f28419497f9722a3daafe3b4186f6b6457e08380a36312cc0300420190814211620001845750600e556133e99081620003848239f35b634e487b7160e01b81526011600452602490fd5b0151905038806200010a565b90601f198316968486528286209286905b898210620001f3575050838596979810620001d9575b505050811b0190556200011e565b015160001960f88460031b161c19169055388080620001cb565b808785968294968601518155019501930190620001b5565b8486528186208380860160051c82019284871062000249575b0160051c019085905b8281106200023d575050620000ef565b8781550185906200022d565b9250819262000224565b634e487b7160e01b86526022600452602486fd5b90607f1690620000dd565b634e487b7160e01b85526041600452602485fd5b015190503880620000af565b8880528489208894509190601f1984168a5b87828210620002df5750508411620002c5575b505050811b018555620000c3565b015160001960f88460031b161c19169055388080620002b7565b8385015186558b97909501949384019301620002a4565b9091508780528388208580850160051c8201928686106200033f575b918991869594930160051c01915b8281106200033057505062000099565b8a815585945089910162000320565b9250819262000312565b634e487b7160e01b87526022600452602487fd5b93607f169362000082565b634e487b7160e01b600052604160045260246000fd5b600080fdfe61010080604052600436101561001457600080fd5b60003560e01c90816301ffc9a7146117f25750806306fdde0314611733578063081812fc14611715578063095ea7b31461159b57806318160ddd1461157d57806323b872dd146115595780632f745c59146114a757806342842e0e146114745780634f6ccce7146113e35780635be70c1f1461130c5780636352211e146112dc57806370a08231146112b1578063715018a6146112545780638da5cb5b1461122b57806395d89b4114611120578063a22cb4651461104e578063a2d6c6da1461102f578063b88d4fde14610f84578063c87b56dd146105d5578063d4e28c9c1461059e578063e985e9c514610548578063eb93406b1461021d578063ebf902cd146101f15763f2fde38b1461012857600080fd5b346101ec5760203660031901126101ec576101416118bf565b6101496119b2565b6001600160a01b0390811690811561019857600a54826001600160601b0360a01b821617600a55167f8be0079c531659141344cd1fd0a4f28419497f9722a3daafe3b4186f6b6457e0600080a3005b60405162461bcd60e51b815260206004820152602660248201527f4f776e61626c653a206e6577206f776e657220697320746865207a65726f206160448201526564647265737360d01b6064820152608490fd5b600080fd5b346101ec5760203660031901126101ec57600435600052600d6020526020604060002054604051908152f35b60003660031901126101ec57600e5442101561051457600b5461023f816120db565b600b556040519061024f82611920565b6000825233156104d05760008181526002602052604090205461027e906001600160a01b031615155b156120ea565b60085491816000526020926009845280604060002055600160401b8110156104ba5761038e916102d4846102bb84600161038996016008556120a4565b90919082549060031b91821b91600019901b1916179055565b6102dd33611a0a565b3360005260068652604060002081600052865284604060002055846000526007865260406000205561032761027885600052600260205260018060a01b0360406000205416151590565b336000526003855260406000206001815401905583600052600285526040600020336001600160601b0360a01b825416179055833360007fddf252ad1be2c89b69c2b068fc378daa952ba7f163c4a11628f55a4df523b3ef8180a48333611f2e565b611be6565b60001943014381116104a457604051838101914082523360601b60408201523060601b6054820152466068820152826088820152608881526103cf81611958565b51902081600052600c8352604060002060ff60f01b8260011a60f01b1660ff60f81b8360001a60f81b161760ff60e81b8360021a60e81b161760e81c62ffffff1982541617905560031a806032029060328204036104a45760ff9004600901806009116104a45781600052600d8352604060002055600080808060018060a01b03600a541634905af1610460611efe565b501561046e57604051908152f35b60405162461bcd60e51b815260048101839052600e60248201526d19985a5b1959081d1bc81cd95b9d60921b6044820152606490fd5b634e487b7160e01b600052601160045260246000fd5b634e487b7160e01b600052604160045260246000fd5b606460405162461bcd60e51b815260206004820152602060248201527f4552433732313a206d696e7420746f20746865207a65726f20616464726573736044820152fd5b60405162461bcd60e51b815260206004820152600c60248201526b444f4e45204d494e54494e4760a01b6044820152606490fd5b346101ec5760403660031901126101ec576105616118bf565b6105696118d5565b9060018060a01b03809116600052600560205260406000209116600052602052602060ff604060002054166040519015158152f35b346101ec5760203660031901126101ec57600435600052600c602052602060406000205460e81b6040519062ffffff60e81b168152f35b346101ec5760203660031901126101ec576004356000908152600260205260409020546001600160a01b031615610f565761066260306106166004356122bf565b6f4f682050616e646173204d454d45202360801b602060405180608052015261064a81518092602085608051019101611877565b60805180918101039060108201905201608051611974565b600435600052600c602052610747605c61068360406000205460e81b6132b6565b600435600052600d60205261069c6040600020546122bf565b907f54686973204f682050616e646173204d454d4520626f726e732077697468206760206040518060a05201526e656e6573206f6620636f6c6f72202360881b604060a05101526106f9815180926020604f60a051019101611877565b60a051016901030b7321039b4bd32960b51b604f820152610724825180936020605985019101611877565b016221212160e81b605982015260a05180910390603c820190520160a051611974565b61082f6107556004356125d3565b61082a60a060405180937f3c73766720786d6c6e733d22687474703a2f2f7777772e77332e6f72672f323060208301527f30302f737667222077696474683d2233303022206865696768743d223330302260408301527f2076657273696f6e3d22312e312220786d6c6e733a786c696e6b3d226874747060608301527f3a2f2f7777772e77332e6f72672f313939392f786c696e6b223e000000000000608083015261080b815180926020609a86019101611877565b8101651e17b9bb339f60d11b609a820152036080810184520182611974565b612168565b61083a600435612413565b97919490969a93929b99959860c0526108546004356122bf565b9715610f275761089561088f61088960405161086f8161193c565b60078152667965732831252960c81b60208201529e6122bf565b966122bf565b976122bf565b976001600160a01b036108a9600435611acd565b16996040519a8b67ffffffffffffffff60608281810110920111176104ba5760608c01604052602a8c5260408c6020369101378b5115610f1157603060208d01538b5160011015610f1157607860218d015360295b60018111610ecf5750610e8b577f227d2c7b2274726169745f74797065223a226e6f736520636f6c6f72222c22766102799d610e129f997f227d2c7b2274726169745f74797065223a2272696768742065796520636f6c6f7f227d2c7b2274726169745f74797065223a226d6f7574682073697a65222c2276977f227d2c7b2274726169745f74797065223a226c6566742065796520636f6c6f727f227d2c7b2274726169745f74797065223a226e6f73652073697a65222c2276619d7f227d2c7b2274726169745f74797065223a226561722073697a65222c2276616c9c7f227d2c7b2274726169745f74797065223a226d6f75746820636f6c6f72222c22996040518060e0526020683d913730b6b2911d1160b91b910152608051610a31815180926020602960e051019101611877565b60e05101701116113232b9b1b934b83a34b7b7111d1160791b602982015260a05190610a67825180936020603a85019101611877565b017f222c2265787465726e616c5f75726c223a2268747470733a2f2f6f6870616e64603a8201526c61732e636f6d2f746f6b656e2f60981b605a820152610ab8825180936020606785019101611877565b017f222c2261747472696275746573223a5b7b2274726169745f74797065223a226c60678201527f6566742065617220636f6c6f72222c2276616c7565223a2223000000000000006087820152610b1982518093602060a085019101611877565b01947f227d2c7b2274726169745f74797065223a2272696768742065617220636f6c6f60a08701526c72222c2276616c7565223a222360981b958660c0820152610b6d82518093602060cd85019101611877565b017f227d2c7b2274726169745f74797065223a2274696c742068656164222c22766160cd82015265363ab2911d1160d11b60ed820152610bb782518093602060f385019101611877565b017f227d2c7b2274726169745f74797065223a2266616369616c206f75746c696e6560f38201527120636f6c6f72222c2276616c7565223a222360701b610113820152600b60fa1b60c05191825190610c1a826101259560208785019101611877565b0191820152825190610c36826101269560208785019101611877565b01918201526b222c2276616c7565223a222360a01b610146820152835190610c68826101529660208885019101611877565b0192830152610172820152825190610c8a8261017f9560208785019101611877565b019182015267616c7565223a222360c01b61019f820152825190610cb8826101a79560208785019101611877565b01918201526876616c7565223a222360b81b6101c7820152825190610ce7826101d09560208785019101611877565b01918201526630b63ab2911d1160c91b6101f0820152825190610d14826101f79560208785019101611877565b0191820152653ab2911d101160d11b610217820152825190610d408261021d9560208785019101611877565b019182015266363ab2911d101160c91b61023d820152815190610d6d826102449460208685019101611877565b01906c113eae961137bbb732b9111d1160991b90820152815190610d9b826102519460208685019101611877565b01906b11161134b6b0b3b2911d101160a11b908201527f646174613a696d6167652f7376672b786d6c3b6261736536342c00000000000061025d820152815190610def826102779460208685019101611877565b019061227d60f01b9082015260e05180910390610259820190520160e051611974565b610e87610e2060e051612168565b610e73603d60405180937f646174613a6170706c69636174696f6e2f6a736f6e3b6261736536342c0000006020830152610e638151809260208686019101611877565b810103601d810184520182611974565b60405191829160208352602083019061189a565b0390f35b606460405162461bcd60e51b815260206004820152602060248201527f537472696e67733a20686578206c656e67746820696e73756666696369656e746044820152fd5b90600f81166010811015610f11576f181899199a1a9b1b9c1cb0b131b232b360811b901a610efd838f612402565b5360041c9080156104a457600019016108fe565b634e487b7160e01b600052603260045260246000fd5b61089561088f610889604051610f3c8161193c565b60078152666e6f283939252960c81b60208201529e6122bf565b60405162461bcd60e51b815260206004820152600660248201526508595e1a5cdd60d21b6044820152606490fd5b346101ec5760803660031901126101ec57610f9d6118bf565b610fa56118d5565b906064359060443567ffffffffffffffff83116101ec57366023840112156101ec57826004013593610fd685611996565b92610fe46040519485611974565b85845236602487870101116101ec57600060208761102d9860246103899901838901378601015261101d6110188433611c0a565b611b31565b611028838383611cd2565b612026565b005b346101ec5760203660031901126101ec57610e87610e736004356125d3565b346101ec5760403660031901126101ec576110676118bf565b602435908115158092036101ec576001600160a01b0316903382146110db57336000526005602052604060002082600052602052604060002060ff1981541660ff83161790556040519081527f17307eab39ab6107e8899845ad3d59bd9653f200f220920489ca2b5937696c3160203392a3005b60405162461bcd60e51b815260206004820152601960248201527f4552433732313a20617070726f766520746f2063616c6c6572000000000000006044820152606490fd5b346101ec5760003660031901126101ec57604051600060019081549182811c91818416918215611221575b602094858510841461120b5785879486865291826000146111eb575050600114611191575b5061117d92500383611974565b610e8760405192828493845283019061189a565b6000818152859250907fb10e2d527612073b26eecdfd717e6a320cf44b4afac2b0732d9fcbe2b7fa0cf65b8583106111d357505061117d935082010185611170565b805483890185015287945086939092019181016111bc565b60ff19168582015261117d95151560051b85010192508791506111709050565b634e487b7160e01b600052602260045260246000fd5b92607f169261114b565b346101ec5760003660031901126101ec57600a546040516001600160a01b039091168152602090f35b346101ec5760003660031901126101ec5761126d6119b2565b600a80546001600160a01b031981169091556000906001600160a01b03167f8be0079c531659141344cd1fd0a4f28419497f9722a3daafe3b4186f6b6457e08280a3005b346101ec5760203660031901126101ec5760206112d46112cf6118bf565b611a0a565b604051908152f35b346101ec5760203660031901126101ec5760206112fa600435611acd565b6040516001600160a01b039091168152f35b346101ec5760203660031901126101ec57611328600435612413565b9790969195929860409b9a9b959495519b8c9b8c6101808091528d0161134d9161189a565b8c810360208e015261135e9161189a565b8b810360408d015261136f9161189a565b8a810360608c01526113809161189a565b89810360808b01526113919161189a565b88810360a08a01526113a29161189a565b87810360c08901526113b39161189a565b86810360e08801526113c49161189a565b9361010086015261012085015261014084015215156101608301520390f35b346101ec5760203660031901126101ec5760043560085481101561141a5761140c6020916120a4565b90546040519160031b1c8152f35b60405162461bcd60e51b815260206004820152602c60248201527f455243373231456e756d657261626c653a20676c6f62616c20696e646578206f60448201526b7574206f6620626f756e647360a01b6064820152608490fd5b346101ec5761102d610389611488366118eb565b906040519261149684611920565b6000845261101d6110188433611c0a565b346101ec5760403660031901126101ec576114c06118bf565b602435906114cd81611a0a565b8210156115005760018060a01b031660005260066020526040600020906000526020526020604060002054604051908152f35b60405162461bcd60e51b815260206004820152602b60248201527f455243373231456e756d657261626c653a206f776e657220696e646578206f7560448201526a74206f6620626f756e647360a81b6064820152608490fd5b346101ec5761102d61156a366118eb565b916115786110188433611c0a565b611cd2565b346101ec5760003660031901126101ec576020600854604051908152f35b346101ec5760403660031901126101ec576115b46118bf565b602435906001600160a01b0380806115cb85611acd565b169216918083146116c6578033149081156116a1575b501561163657600083815260046020526040902080546001600160a01b0319168317905561160e83611acd565b167f8c5be1e5ebec7d5bd14f71427d1e84f3dd0314c0f7b2291e5b200ac8c7c3b925600080a4005b60405162461bcd60e51b815260206004820152603d60248201527f4552433732313a20617070726f76652063616c6c6572206973206e6f7420746f60448201527f6b656e206f776e6572206f7220617070726f76656420666f7220616c6c0000006064820152608490fd5b9050600052600560205260406000203360005260205260ff60406000205416846115e1565b60405162461bcd60e51b815260206004820152602160248201527f4552433732313a20617070726f76616c20746f2063757272656e74206f776e656044820152603960f91b6064820152608490fd5b346101ec5760203660031901126101ec5760206112fa600435611af3565b346101ec5760003660031901126101ec576040516000805490600182811c918184169182156117e8575b602094858510841461120b5785879486865291826000146111eb57505060011461178e575061117d92500383611974565b6000808052859250907f290decd9548b62a8d60345a988386fc84ba6bc95484008f6362f93160ef3e5635b8583106117d057505061117d935082010185611170565b805483890185015287945086939092019181016117b9565b92607f169261175d565b346101ec5760203660031901126101ec576004359063ffffffff60e01b82168092036101ec5760209163780e9d6360e01b8114908115611834575b5015158152f35b6380ac58cd60e01b811491508115611866575b8115611855575b508361182d565b6301ffc9a760e01b1490508361184e565b635b5e139f60e01b81149150611847565b60005b83811061188a5750506000910152565b818101518382015260200161187a565b906020916118b381518092818552858086019101611877565b601f01601f1916010190565b600435906001600160a01b03821682036101ec57565b602435906001600160a01b03821682036101ec57565b60609060031901126101ec576001600160a01b039060043582811681036101ec579160243590811681036101ec579060443590565b6020810190811067ffffffffffffffff8211176104ba57604052565b6040810190811067ffffffffffffffff8211176104ba57604052565b60c0810190811067ffffffffffffffff8211176104ba57604052565b90601f8019910116810190811067ffffffffffffffff8211176104ba57604052565b67ffffffffffffffff81116104ba57601f01601f191660200190565b600a546001600160a01b031633036119c657565b606460405162461bcd60e51b815260206004820152602060248201527f4f776e61626c653a2063616c6c6572206973206e6f7420746865206f776e65726044820152fd5b6001600160a01b03168015611a2a57600052600360205260406000205490565b60405162461bcd60e51b815260206004820152602960248201527f4552433732313a2061646472657373207a65726f206973206e6f7420612076616044820152683634b21037bbb732b960b91b6064820152608490fd5b15611a8857565b60405162461bcd60e51b815260206004820152601860248201527f4552433732313a20696e76616c696420746f6b656e20494400000000000000006044820152606490fd5b6000908152600260205260409020546001600160a01b0316611af0811515611a81565b90565b600081815260026020526040902054611b16906001600160a01b03161515611a81565b6000908152600460205260409020546001600160a01b031690565b15611b3857565b60405162461bcd60e51b815260206004820152602d60248201527f4552433732313a2063616c6c6572206973206e6f7420746f6b656e206f776e6560448201526c1c881bdc88185c1c1c9bdd9959609a1b6064820152608490fd5b60809060208152603260208201527f4552433732313a207472616e7366657220746f206e6f6e20455243373231526560408201527131b2b4bb32b91034b6b83632b6b2b73a32b960711b60608201520190565b15611bed57565b60405162461bcd60e51b815280611c0660048201611b93565b0390fd5b906001600160a01b038080611c1e84611acd565b16931691838314938415611c51575b508315611c3b575b50505090565b611c4791929350611af3565b1614388080611c35565b909350600052600560205260406000208260005260205260ff604060002054169238611c2d565b15611c7f57565b60405162461bcd60e51b815260206004820152602560248201527f4552433732313a207472616e736665722066726f6d20696e636f72726563742060448201526437bbb732b960d91b6064820152608490fd5b611cf691611cdf84611acd565b6001600160a01b0393848416939185168414611c78565b838216938415611ead57839182611e0a575090506008549085600052600960205281604060002055600160401b8210156104ba57611d5c92611d43876102bb8560018997016008556120a4565b828603611dd7575b50611d5586611acd565b1614611c78565b7fddf252ad1be2c89b69c2b068fc378daa952ba7f163c4a11628f55a4df523b3ef60008481526004602052604081206001600160601b0360a01b9081815416905583825260036020526040822060001981540190558482526040822060018154019055858252600260205284604083209182541617905580a4565b611de090611a0a565b60406000878152600660205281812083825260205288828220558881526007602052205538611d4b565b858303611e1c575b50611d5c92611d43565b611e27919250611a0a565b6000198101919082116104a457611d5c9284926000908882526020906007825260409182842054828103611e76575b508a84528383812055868452600681528284209184525281205592611e12565b8785526006825283852083865282528385205488865260068352848620828752835280858720558552600782528385205538611e56565b60405162461bcd60e51b8152602060048201526024808201527f4552433732313a207472616e7366657220746f20746865207a65726f206164646044820152637265737360e01b6064820152608490fd5b3d15611f29573d90611f0f82611996565b91611f1d6040519384611974565b82523d6000602084013e565b606090565b909190803b1561201e576020604051809281630a85bd0160e11b9687825233600483015281611f776000988993846024850152604484015260806064840152608483019061189a565b03926001600160a01b03165af190829082611fcf575b5050611fc157611f9b611efe565b80519081611fbc5760405162461bcd60e51b815280611c0660048201611b93565b602001fd5b6001600160e01b0319161490565b909192506020813d8211612016575b81611feb60209383611974565b810103126120125751906001600160e01b03198216820361200f5750903880611f8d565b80fd5b5080fd5b3d9150611fde565b505050600190565b919290803b1561209b57604051630a85bd0160e11b8082523360048301526001600160a01b0394851660248301526044820195909552608060648201529160209183918290819061207b90608483019061189a565b03916000968791165af190829082611fcf575050611fc157611f9b611efe565b50505050600190565b600854811015610f115760086000527ff3f7a9fe364faab93b216da50a3214154f22a0a2b415b23a84c8169e8b636ee30190600090565b60001981146104a45760010190565b156120f157565b60405162461bcd60e51b815260206004820152601c60248201527f4552433732313a20746f6b656e20616c7265616479206d696e746564000000006044820152606490fd5b9061214082611996565b61214d6040519182611974565b828152809261215e601f1991611996565b0190602036910137565b8051156122ab576040516060810181811067ffffffffffffffff8211176104ba57604052604081527f4142434445464748494a4b4c4d4e4f505152535455565758595a61626364656660208201527f6768696a6b6c6d6e6f707172737475767778797a303132333435363738392b2f604082015281516002928382018092116104a4576003918290046001600160fe1b03811681036104a45761220e908594951b612136565b936020850193829183518401925b83811061225a57505050505106806001146122475760021461223c575090565b603d90600019015390565b50603d9081600019820153600119015390565b85600491979293949701918251600190603f9082828260121c16880101518453828282600c1c16880101518385015382828260061c168801015188850153168501015187820153019592919061221c565b506040516122b881611920565b6000815290565b806000917a184f03e93ff9f4daa797ed6e38ed64bf6a1f010000000000000000808210156123f4575b506d04ee2d6d415b85acef8100000000808310156123e5575b50662386f26fc10000808310156123d6575b506305f5e100808310156123c7575b50612710808310156123b8575b5060648210156123a8575b600a8092101561239e575b600190816021612356828701612136565b95860101905b612368575b5050505090565b600019019083906f181899199a1a9b1b9c1cb0b131b232b360811b8282061a8353049182156123995791908261235c565b612361565b9160010191612345565b919060646002910491019161233a565b6004919392049101913861232f565b60089193920491019138612322565b60109193920491019138612313565b60209193920491019138612301565b6040935081049150386122e8565b908151811015610f11570160200190565b600091818352600c60205260408320549162ffffff9283811662ffffff60e81b936124438560e894851b166132b6565b96848152600d6020526040812054908160011c6014018060141161251a57908260031c60110190816011116125065750906064889695949392970615966124b9876269390961249a8262f5f7e38a018b1b166132b6565b9c6124ae62ddd5ed8a019d8e8c1b166132b6565b9c1601881b166132b6565b976125036124cf8962bcb5dd89018a1b166132b6565b986124e281629079a88a018b1b166132b6565b98628d64a86124f983626250688c01841b166132b6565b9901901b166132b6565b94565b634e487b7160e01b81526011600452602490fd5b634e487b7160e01b82526011600452602482fd5b7f222073686170652d72656e646572696e673d2267656f6d65747269635072656381526634b9b4b7b7111f60c91b602082015260270190565b7f3c616e696d617465206174747269627574654e616d653d2272222076616c756581527f733d2231353b31333b31303b313522206475723d22313073222072657065617460208201527321b7bab73a1e9134b73232b334b734ba3291179f60611b604082015260540190565b6125dc90612413565b969095979a92949198996125fb61088f6125f58c6122bf565b9b6122bf565b96612605876122bf565b94612618612612896122bf565b986122bf565b99600090156132a1575060405161262e81611958565b609d815260008051602061339483398151915260208201527f227472616e73666f726d2220617474726962757465547970653d22584d4c222060408201527f747970653d22726f74617465222076616c7565733d222d31302031353020313560608201527f303b313020313530203135303b2d3130203135302031353022206475723d223660808201527f732220726570656174436f756e743d22696e646566696e697465222f3e00000060a08201529b5b6040519e8f9e8f91602083017f3c646566733e3c6c696e6561724772616469656e742069643d226f68477261649052604083017f69656e7422206772616469656e745472616e73666f726d3d22726f74617465289052641c9814911f60d91b6060840152606583017f3c73746f70206f66667365743d223525222073746f702d636f6c6f723d2223009052815160208301938160848201906127829187611877565b6211179f60e91b82820160848101919091527f3c73746f70206f66667365743d22353025222073746f702d636f6c6f723d222360878201528351936127d191859160a790910190602001611877565b0101906211179f60e91b60a783015260aa82017f3c73746f70206f66667365743d22393525222073746f702d636f6c6f723d2223905251918260ca830161281792611877565b016211179f60e91b60ca82015260cd81017f3c2f6c696e6561724772616469656e743e3c2f646566733e0000000000000000905260e58101621e339f60e91b905260e881017f3c636972636c652063783d223930222063793d2238302220723d22000000000090528151906101039282848301916020019161289892611877565b019068222066696c6c3d222360b81b9082015281519061010c928284830191602001916128c492611877565b01016128cf9061252e565b60008051602061339483398151915281526000805160206133748339815191526020808301919091527f3d22312e3573222076616c7565733d2230202d333b3020363b30202d333b222060408301527f726570656174436f756e743d22696e646566696e697465222f3e0000000000006060830152681e17b1b4b931b6329f60b91b607a8301527f3c636972636c652063783d22323130222063793d2238302220723d22000000006083830152825192612990918491609f85019101611877565b0168222066696c6c3d222360b81b609f8201528151918260a8830191602001916129b992611877565b0160a8016129c69061252e565b6000805160206133948339815191528082526000805160206133748339815191526020808401919091527f3d22312e373573222076616c7565733d2230202d333b3020363b30202d333b2260408401527f20726570656174436f756e743d22696e646566696e697465222f3e00000000006060840152681e17b1b4b931b6329f60b91b607b8401819052621e339f60e91b608485018190527f3c636972636c652063783d22313530222063793d223135302220723d223937226087860152681039ba3937b5b29e9160b91b60a78601527175726c2827236f684772616469656e74272960701b60b08601527f22207374726f6b652d77696474683d22362e3338222066696c6c3d227768697460c28601527f65222073686170652d72656e646572696e673d2267656f6d657472696350726560e28601526731b4b9b4b7b7111f60c11b61010286015261010a8501939093527f227472616e73666f726d2220617474726962757465547970653d22584d4c222061012a8501527f747970653d22726f74617465222066726f6d3d2230203135302031353022207461014a8501527f6f3d22333630203135302031353022206475723d22367322207265706561744361016a8501527237bab73a1e9134b73232b334b734ba3291179f60691b61018a85015261019d8401526101a68301919091527f3c636972636c652063783d22313135222063793d223132352220723d2232372e6101a98301526a3034222066696c6c3d222360a81b6101c9830152825192612c0a9184916101d485019101611877565b01966101d488017f222073686170652d72656e646572696e673d2267656f6d65747269635072656390526101f4976f34b9b4b7b7111f1e17b1b4b931b6329f60811b8982015261020481017f3c636972636c652063783d22313135222063793d223132352220723d2231302e905261022481017f3332222066696c6c3d227768697465222073686170652d72656e646572696e679052751e9133b2b7b6b2ba3934b1a83932b1b4b9b4b7b7111f60511b61024482015261025a01612ccd90612567565b681e17b1b4b931b6329f60b91b81527f3c636972636c652063783d22313835222063793d223132352220723d2232372e60098201527f3034222066696c6c3d22626c61636b222073686170652d72656e646572696e6760298201527f3d2267656f6d6574726963507265636973696f6e223e3c2f636972636c653e0060498201527f3c636972636c652063783d22313835222063793d223132352220723d2231302e60688201526a3332222066696c6c3d222360a81b60888201528151602083019291612d9e826093830186611877565b01609301612dab9061252e565b7f3c616e696d617465206174747269627574654e616d653d2266696c6c222076618152666c7565733d222360c81b6020820152815190612def826027830186611877565b019060278201653b7265643b2360d01b9052519182602d8301612e1192611877565b0194602d86017f22206475723d2231732220726570656174436f756e743d22696e646566696e699052643a3291179f60d91b9586604d820152605201612e5690612567565b681e17b1b4b931b6329f60b91b81527f3c636972636c652063783d22313835222063793d223132352220723d22362e3360098201527f38222066696c6c3d22626c61636b222073686170652d72656e646572696e673d60298201527f2267656f6d6574726963507265636973696f6e223e3c2f636972636c653e000060498201527f3c636972636c652063783d22313530222063793d223137302220723d220000006067820152815191612f139083906084840190602001611877565b0168222066696c6c3d222360b81b608482015281519182608d83019160200191612f3c92611877565b01608d01612f499061252e565b60008051602061339483398151915281526000805160206133748339815191526020808301919091527f3d22322e3573222076616c7565733d2230202d313b3020323b30202d313b222060408301527f726570656174436f756e743d22696e646566696e697465222f3e0000000000006060830152681e17b1b4b931b6329f60b91b607a8301527f3c656c6c697073652063783d22313530222063793d22323130222072783d2200608383015282519261300a91849160a285019101611877565b0160a281017f222072793d22392e303922207374796c653d2266696c6c3a230000000000000090528151918260bb8301916020019161304892611877565b7f3b7374726f6b653a626c61636b3b7374726f6b652d77696474683a332e39342260bb92909101918201527f2073686170652d72656e646572696e673d2267656f6d6574726963507265636960db8201526539b4b7b7111f60d11b60fb8201527f3c616e696d617465206174747269627574654e616d653d227278222076616c756101018201526332b99e9160e11b6101218201528151610125929091906130f890839085840190602001611877565b01908101633b31303b60e01b90528251906101299382858301916020019161311f92611877565b019182017f22206475723d2235732220726570656174436f756e743d22696e646566696e69905261014982015261014e8101691e17b2b63634b839b29f60b11b9052610158810160008051602061339483398151915290526101788101600080516020613374833981519152905261019881017f3d223573222076616c7565733d2230202d323b3020343b30202d323b2220726590526101b881017f70656174436f756e743d22696e646566696e697465222f3e00000000000000009052631e17b39f60e11b91826101d08301526101d4820160008051602061339483398151915290528101600080516020613374833981519152905261021481017f3d22332e373573222076616c7565733d2230202d333b3020363b30202d333b22905261023481017f20726570656174436f756e743d22696e646566696e697465222f3e000000000090528161024f8201528251906102539382858301916020019161328692611877565b0191820152036102378101825261025701611af09082611974565b604051906132ae82611920565b81529b6126e0565b604051906132c38261193c565b600682526020368184013760005b600381106132de57505090565b600f82821a8181169060109081831015610f115760019385851b94868604600214871517156104a45785018086116104a4576133316f181899199a1a9b1b9c1cb0b131b232b360811b80961a918a612402565b53600491821c169182101561335e5750613359939291613353911a9186612402565b536120db565b6132d1565b603290634e487b7160e01b6000525260246000fdfe227472616e73666f726d2220747970653d227472616e736c61746522206475723c616e696d6174655472616e73666f726d206174747269627574654e616d653da2646970667358221220535b4ea59a997715e6adffe41539b441e98f36e2a02c87a1f8387ed429d2160764736f6c63430008140033",
  "devdoc": {
    "events": {
      "Approval(address,address,uint256)": {
        "details": "Emitted when `owner` enables `approved` to manage the `tokenId` token."
      },
      "ApprovalForAll(address,address,bool)": {
        "details": "Emitted when `owner` enables or disables (`approved`) `operator` to manage all of its assets."
      },
      "Transfer(address,address,uint256)": {
        "details": "Emitted when `tokenId` token is transferred from `from` to `to`."
      }
    },
    "kind": "dev",
    "methods": {
      "approve(address,uint256)": {
        "details": "See {IERC721-approve}."
      },
      "balanceOf(address)": {
        "details": "See {IERC721-balanceOf}."
      },
      "getApproved(uint256)": {
        "details": "See {IERC721-getApproved}."
      },
      "isApprovedForAll(address,address)": {
        "details": "See {IERC721-isApprovedForAll}."
      },
      "name()": {
        "details": "See {IERC721Metadata-name}."
      },
      "owner()": {
        "details": "Returns the address of the current owner."
      },
      "ownerOf(uint256)": {
        "details": "See {IERC721-ownerOf}."
      },
      "renounceOwnership()": {
        "details": "Leaves the contract without owner. It will not be possible to call `onlyOwner` functions. Can only be called by the current owner. NOTE: Renouncing ownership will leave the contract without an owner, thereby disabling any functionality that is only available to the owner."
      },
      "safeTransferFrom(address,address,uint256)": {
        "details": "See {IERC721-safeTransferFrom}."
      },
      "safeTransferFrom(address,address,uint256,bytes)": {
        "details": "See {IERC721-safeTransferFrom}."
      },
      "setApprovalForAll(address,bool)": {
        "details": "See {IERC721-setApprovalForAll}."
      },
      "supportsInterface(bytes4)": {
        "details": "See {IERC165-supportsInterface}."
      },
      "symbol()": {
        "details": "See {IERC721Metadata-symbol}."
      },
      "tokenByIndex(uint256)": {
        "details": "See {IERC721Enumerable-tokenByIndex}."
      },
      "tokenOfOwnerByIndex(address,uint256)": {
        "details": "See {IERC721Enumerable-tokenOfOwnerByIndex}."
      },
      "totalSupply()": {
        "details": "See {IERC721Enumerable-totalSupply}."
      },
      "transferFrom(address,address,uint256)": {
        "details": "See {IERC721-transferFrom}."
      },
      "transferOwnership(address)": {
        "details": "Transfers ownership of the contract to a new account (`newOwner`). Can only be called by the current owner."
      }
    },
    "version": 1
  },
  "userdoc": {
    "kind": "user",
    "methods": {},
    "version": 1
  },
  "storageLayout": {
    "storage": [
      {
        "astId": 138,
        "contract": "contracts/OhPandaMEME.sol:OhPandaMEME",
        "label": "_name",
        "offset": 0,
        "slot": "0",
        "type": "t_string_storage"
      },
      {
        "astId": 140,
        "contract": "contracts/OhPandaMEME.sol:OhPandaMEME",
        "label": "_symbol",
        "offset": 0,
        "slot": "1",
        "type": "t_string_storage"
      },
      {
        "astId": 144,
        "contract": "contracts/OhPandaMEME.sol:OhPandaMEME",
        "label": "_owners",
        "offset": 0,
        "slot": "2",
        "type": "t_mapping(t_uint256,t_address)"
      },
      {
        "astId": 148,
        "contract": "contracts/OhPandaMEME.sol:OhPandaMEME",
        "label": "_balances",
        "offset": 0,
        "slot": "3",
        "type": "t_mapping(t_address,t_uint256)"
      },
      {
        "astId": 152,
        "contract": "contracts/OhPandaMEME.sol:OhPandaMEME",
        "label": "_tokenApprovals",
        "offset": 0,
        "slot": "4",
        "type": "t_mapping(t_uint256,t_address)"
      },
      {
        "astId": 158,
        "contract": "contracts/OhPandaMEME.sol:OhPandaMEME",
        "label": "_operatorApprovals",
        "offset": 0,
        "slot": "5",
        "type": "t_mapping(t_address,t_mapping(t_address,t_bool))"
      },
      {
        "astId": 1188,
        "contract": "contracts/OhPandaMEME.sol:OhPandaMEME",
        "label": "_ownedTokens",
        "offset": 0,
        "slot": "6",
        "type": "t_mapping(t_address,t_mapping(t_uint256,t_uint256))"
      },
      {
        "astId": 1192,
        "contract": "contracts/OhPandaMEME.sol:OhPandaMEME",
        "label": "_ownedTokensIndex",
        "offset": 0,
        "slot": "7",
        "type": "t_mapping(t_uint256,t_uint256)"
      },
      {
        "astId": 1195,
        "contract": "contracts/OhPandaMEME.sol:OhPandaMEME",
        "label": "_allTokens",
        "offset": 0,
        "slot": "8",
        "type": "t_array(t_uint256)dyn_storage"
      },
      {
        "astId": 1199,
        "contract": "contracts/OhPandaMEME.sol:OhPandaMEME",
        "label": "_allTokensIndex",
        "offset": 0,
        "slot": "9",
        "type": "t_mapping(t_uint256,t_uint256)"
      },
      {
        "astId": 7,
        "contract": "contracts/OhPandaMEME.sol:OhPandaMEME",
        "label": "_owner",
        "offset": 0,
        "slot": "10",
        "type": "t_address"
      },
      {
        "astId": 3243,
        "contract": "contracts/OhPandaMEME.sol:OhPandaMEME",
        "label": "_nextTokenId",
        "offset": 0,
        "slot": "11",
        "type": "t_uint256"
      },
      {
        "astId": 3247,
        "contract": "contracts/OhPandaMEME.sol:OhPandaMEME",
        "label": "color",
        "offset": 0,
        "slot": "12",
        "type": "t_mapping(t_uint256,t_bytes3)"
      },
      {
        "astId": 3251,
        "contract": "contracts/OhPandaMEME.sol:OhPandaMEME",
        "label": "mouthWidth",
        "offset": 0,
        "slot": "13",
        "type": "t_mapping(t_uint256,t_uint256)"
      },
      {
        "astId": 3257,
        "contract": "contracts/OhPandaMEME.sol:OhPandaMEME",
        "label": "mintDeadline",
        "offset": 0,
        "slot": "14",
        "type": "t_uint256"
      }
    ],
    "types": {
      "t_address": {
        "encoding": "inplace",
        "label": "address",
        "numberOfBytes": "20"
      },
      "t_array(t_uint256)dyn_storage": {
        "base": "t_uint256",
        "encoding": "dynamic_array",
        "label": "uint256[]",
        "numberOfBytes": "32"
      },
      "t_bool": {
        "encoding": "inplace",
        "label": "bool",
        "numberOfBytes": "1"
      },
      "t_bytes3": {
        "encoding": "inplace",
        "label": "bytes3",
        "numberOfBytes": "3"
      },
      "t_mapping(t_address,t_bool)": {
        "encoding": "mapping",
        "key": "t_address",
        "label": "mapping(address => bool)",
        "numberOfBytes": "32",
        "value": "t_bool"
      },
      "t_mapping(t_address,t_mapping(t_address,t_bool))": {
        "encoding": "mapping",
        "key": "t_address",
        "label": "mapping(address => mapping(address => bool))",
        "numberOfBytes": "32",
        "value": "t_mapping(t_address,t_bool)"
      },
      "t_mapping(t_address,t_mapping(t_uint256,t_uint256))": {
        "encoding": "mapping",
        "key": "t_address",
        "label": "mapping(address => mapping(uint256 => uint256))",
        "numberOfBytes": "32",
        "value": "t_mapping(t_uint256,t_uint256)"
      },
      "t_mapping(t_address,t_uint256)": {
        "encoding": "mapping",
        "key": "t_address",
        "label": "mapping(address => uint256)",
        "numberOfBytes": "32",
        "value": "t_uint256"
      },
      "t_mapping(t_uint256,t_address)": {
        "encoding": "mapping",
        "key": "t_uint256",
        "label": "mapping(uint256 => address)",
        "numberOfBytes": "32",
        "value": "t_address"
      },
      "t_mapping(t_uint256,t_bytes3)": {
        "encoding": "mapping",
        "key": "t_uint256",
        "label": "mapping(uint256 => bytes3)",
        "numberOfBytes": "32",
        "value": "t_bytes3"
      },
      "t_mapping(t_uint256,t_uint256)": {
        "encoding": "mapping",
        "key": "t_uint256",
        "label": "mapping(uint256 => uint256)",
        "numberOfBytes": "32",
        "value": "t_uint256"
      },
      "t_string_storage": {
        "encoding": "bytes",
        "label": "string",
        "numberOfBytes": "32"
      },
      "t_uint256": {
        "encoding": "inplace",
        "label": "uint256",
        "numberOfBytes": "32"
      }
    }
  }
}