{
  "address": "0x1F157A78cDA76Da5980c2032cFDD686D9854b294",
  "abi": [
    {
      "inputs": [],
      "stateMutability": "nonpayable",
      "type": "constructor"
    },
    {
      "anonymous": false,
      "inputs": [
        {
          "indexed": true,
          "internalType": "address",
          "name": "owner",
          "type": "address"
        },
        {
          "indexed": true,
          "internalType": "address",
          "name": "approved",
          "type": "address"
        },
        {
          "indexed": true,
          "internalType": "uint256",
          "name": "tokenId",
          "type": "uint256"
        }
      ],
      "name": "Approval",
      "type": "event"
    },
    {
      "anonymous": false,
      "inputs": [
        {
          "indexed": true,
          "internalType": "address",
          "name": "owner",
          "type": "address"
        },
        {
          "indexed": true,
          "internalType": "address",
          "name": "operator",
          "type": "address"
        },
        {
          "indexed": false,
          "internalType": "bool",
          "name": "approved",
          "type": "bool"
        }
      ],
      "name": "ApprovalForAll",
      "type": "event"
    },
    {
      "anonymous": false,
      "inputs": [
        {
          "indexed": true,
          "internalType": "address",
          "name": "previousOwner",
          "type": "address"
        },
        {
          "indexed": true,
          "internalType": "address",
          "name": "newOwner",
          "type": "address"
        }
      ],
      "name": "OwnershipTransferred",
      "type": "event"
    },
    {
      "anonymous": false,
      "inputs": [
        {
          "indexed": true,
          "internalType": "address",
          "name": "from",
          "type": "address"
        },
        {
          "indexed": true,
          "internalType": "address",
          "name": "to",
          "type": "address"
        },
        {
          "indexed": true,
          "internalType": "uint256",
          "name": "tokenId",
          "type": "uint256"
        }
      ],
      "name": "Transfer",
      "type": "event"
    },
    {
      "inputs": [
        {
          "internalType": "address",
          "name": "to",
          "type": "address"
        },
        {
          "internalType": "uint256",
          "name": "tokenId",
          "type": "uint256"
        }
      ],
      "name": "approve",
      "outputs": [],
      "stateMutability": "nonpayable",
      "type": "function"
    },
    {
      "inputs": [
        {
          "internalType": "address",
          "name": "owner",
          "type": "address"
        }
      ],
      "name": "balanceOf",
      "outputs": [
        {
          "internalType": "uint256",
          "name": "",
          "type": "uint256"
        }
      ],
      "stateMutability": "view",
      "type": "function"
    },
    {
      "inputs": [
        {
          "internalType": "uint256",
          "name": "",
          "type": "uint256"
        }
      ],
      "name": "color",
      "outputs": [
        {
          "internalType": "bytes3",
          "name": "",
          "type": "bytes3"
        }
      ],
      "stateMutability": "view",
      "type": "function"
    },
    {
      "inputs": [
        {
          "internalType": "uint256",
          "name": "tokenId",
          "type": "uint256"
        }
      ],
      "name": "getApproved",
      "outputs": [
        {
          "internalType": "address",
          "name": "",
          "type": "address"
        }
      ],
      "stateMutability": "view",
      "type": "function"
    },
    {
      "inputs": [
        {
          "internalType": "uint256",
          "name": "id",
          "type": "uint256"
        }
      ],
      "name": "getPropertiesById",
      "outputs": [
        {
          "internalType": "string",
          "name": "leftEarColor",
          "type": "string"
        },
        {
          "internalType": "string",
          "name": "rightEarColor",
          "type": "string"
        },
        {
          "internalType": "string",
          "name": "faceStrokeColor",
          "type": "string"
        },
        {
          "internalType": "string",
          "name": "leftEyeColor",
          "type": "string"
        },
        {
          "internalType": "string",
          "name": "rightEyeColor",
          "type": "string"
        },
        {
          "internalType": "string",
          "name": "noseColor",
          "type": "string"
        },
        {
          "internalType": "string",
          "name": "mouthColor",
          "type": "string"
        },
        {
          "internalType": "uint256",
          "name": "mouthSize",
          "type": "uint256"
        },
        {
          "internalType": "uint256",
          "name": "earSize",
          "type": "uint256"
        },
        {
          "internalType": "uint256",
          "name": "noseSize",
          "type": "uint256"
        }
      ],
      "stateMutability": "view",
      "type": "function"
    },
    {
      "inputs": [
        {
          "internalType": "address",
          "name": "owner",
          "type": "address"
        },
        {
          "internalType": "address",
          "name": "operator",
          "type": "address"
        }
      ],
      "name": "isApprovedForAll",
      "outputs": [
        {
          "internalType": "bool",
          "name": "",
          "type": "bool"
        }
      ],
      "stateMutability": "view",
      "type": "function"
    },
    {
      "inputs": [],
      "name": "mintItem",
      "outputs": [
        {
          "internalType": "uint256",
          "name": "",
          "type": "uint256"
        }
      ],
      "stateMutability": "nonpayable",
      "type": "function"
    },
    {
      "inputs": [
        {
          "internalType": "uint256",
          "name": "",
          "type": "uint256"
        }
      ],
      "name": "mouthWidth",
      "outputs": [
        {
          "internalType": "uint256",
          "name": "",
          "type": "uint256"
        }
      ],
      "stateMutability": "view",
      "type": "function"
    },
    {
      "inputs": [],
      "name": "name",
      "outputs": [
        {
          "internalType": "string",
          "name": "",
          "type": "string"
        }
      ],
      "stateMutability": "view",
      "type": "function"
    },
    {
      "inputs": [],
      "name": "owner",
      "outputs": [
        {
          "internalType": "address",
          "name": "",
          "type": "address"
        }
      ],
      "stateMutability": "view",
      "type": "function"
    },
    {
      "inputs": [
        {
          "internalType": "uint256",
          "name": "tokenId",
          "type": "uint256"
        }
      ],
      "name": "ownerOf",
      "outputs": [
        {
          "internalType": "address",
          "name": "",
          "type": "address"
        }
      ],
      "stateMutability": "view",
      "type": "function"
    },
    {
      "inputs": [
        {
          "internalType": "uint256",
          "name": "id",
          "type": "uint256"
        }
      ],
      "name": "renderTokenById",
      "outputs": [
        {
          "internalType": "string",
          "name": "",
          "type": "string"
        }
      ],
      "stateMutability": "view",
      "type": "function"
    },
    {
      "inputs": [],
      "name": "renounceOwnership",
      "outputs": [],
      "stateMutability": "nonpayable",
      "type": "function"
    },
    {
      "inputs": [
        {
          "internalType": "address",
          "name": "from",
          "type": "address"
        },
        {
          "internalType": "address",
          "name": "to",
          "type": "address"
        },
        {
          "internalType": "uint256",
          "name": "tokenId",
          "type": "uint256"
        }
      ],
      "name": "safeTransferFrom",
      "outputs": [],
      "stateMutability": "nonpayable",
      "type": "function"
    },
    {
      "inputs": [
        {
          "internalType": "address",
          "name": "from",
          "type": "address"
        },
        {
          "internalType": "address",
          "name": "to",
          "type": "address"
        },
        {
          "internalType": "uint256",
          "name": "tokenId",
          "type": "uint256"
        },
        {
          "internalType": "bytes",
          "name": "data",
          "type": "bytes"
        }
      ],
      "name": "safeTransferFrom",
      "outputs": [],
      "stateMutability": "nonpayable",
      "type": "function"
    },
    {
      "inputs": [
        {
          "internalType": "address",
          "name": "operator",
          "type": "address"
        },
        {
          "internalType": "bool",
          "name": "approved",
          "type": "bool"
        }
      ],
      "name": "setApprovalForAll",
      "outputs": [],
      "stateMutability": "nonpayable",
      "type": "function"
    },
    {
      "inputs": [
        {
          "internalType": "bytes4",
          "name": "interfaceId",
          "type": "bytes4"
        }
      ],
      "name": "supportsInterface",
      "outputs": [
        {
          "internalType": "bool",
          "name": "",
          "type": "bool"
        }
      ],
      "stateMutability": "view",
      "type": "function"
    },
    {
      "inputs": [],
      "name": "symbol",
      "outputs": [
        {
          "internalType": "string",
          "name": "",
          "type": "string"
        }
      ],
      "stateMutability": "view",
      "type": "function"
    },
    {
      "inputs": [
        {
          "internalType": "uint256",
          "name": "index",
          "type": "uint256"
        }
      ],
      "name": "tokenByIndex",
      "outputs": [
        {
          "internalType": "uint256",
          "name": "",
          "type": "uint256"
        }
      ],
      "stateMutability": "view",
      "type": "function"
    },
    {
      "inputs": [
        {
          "internalType": "address",
          "name": "owner",
          "type": "address"
        },
        {
          "internalType": "uint256",
          "name": "index",
          "type": "uint256"
        }
      ],
      "name": "tokenOfOwnerByIndex",
      "outputs": [
        {
          "internalType": "uint256",
          "name": "",
          "type": "uint256"
        }
      ],
      "stateMutability": "view",
      "type": "function"
    },
    {
      "inputs": [
        {
          "internalType": "uint256",
          "name": "id",
          "type": "uint256"
        }
      ],
      "name": "tokenURI",
      "outputs": [
        {
          "internalType": "string",
          "name": "",
          "type": "string"
        }
      ],
      "stateMutability": "view",
      "type": "function"
    },
    {
      "inputs": [],
      "name": "totalSupply",
      "outputs": [
        {
          "internalType": "uint256",
          "name": "",
          "type": "uint256"
        }
      ],
      "stateMutability": "view",
      "type": "function"
    },
    {
      "inputs": [
        {
          "internalType": "address",
          "name": "from",
          "type": "address"
        },
        {
          "internalType": "address",
          "name": "to",
          "type": "address"
        },
        {
          "internalType": "uint256",
          "name": "tokenId",
          "type": "uint256"
        }
      ],
      "name": "transferFrom",
      "outputs": [],
      "stateMutability": "nonpayable",
      "type": "function"
    },
    {
      "inputs": [
        {
          "internalType": "address",
          "name": "newOwner",
          "type": "address"
        }
      ],
      "name": "transferOwnership",
      "outputs": [],
      "stateMutability": "nonpayable",
      "type": "function"
    }
  ],
  "transactionHash": "0xa68f62b95e229f800a05379ac928fce37a4ad6494b555da9ef7bf7848bb589d8",
  "args": [],
  "numDeployments": 1,
  "solcInputHash": "ac1b82dedc647129d707a9714eaa8df2",
  "bytecode": "0x6080346200037e576001600160401b03906040908082018381118282101762000368578252600b81526020906a4f6850616e64614d454d4560a81b82820152825193838501858110828211176200036857845260038552624f504d60e81b83860152815181811162000368576000938454916001948584811c941680156200035d575b8385101462000349578190601f94858111620002f6575b5083908583116001146200029257889262000286575b5050600019600383901b1c191690851b1785555b8651928311620002725783548481811c9116801562000267575b8282101462000253578281116200020b575b5080918311600114620001a457508394958293949262000198575b5050600019600383901b1c191690821b1790555b600a8054336001600160a01b0319821681179092559251926001600160a01b03167f8be0079c531659141344cd1fd0a4f28419497f9722a3daafe3b4186f6b6457e08380a36312cc0300420190814211620001845750600e55612add9081620003848239f35b634e487b7160e01b81526011600452602490fd5b0151905038806200010a565b90601f198316968486528286209286905b898210620001f3575050838596979810620001d9575b505050811b0190556200011e565b015160001960f88460031b161c19169055388080620001cb565b808785968294968601518155019501930190620001b5565b8486528186208380860160051c82019284871062000249575b0160051c019085905b8281106200023d575050620000ef565b8781550185906200022d565b9250819262000224565b634e487b7160e01b86526022600452602486fd5b90607f1690620000dd565b634e487b7160e01b85526041600452602485fd5b015190503880620000af565b8880528489208894509190601f1984168a5b87828210620002df5750508411620002c5575b505050811b018555620000c3565b015160001960f88460031b161c19169055388080620002b7565b8385015186558b97909501949384019301620002a4565b9091508780528388208580850160051c8201928686106200033f575b918991869594930160051c01915b8281106200033057505062000099565b8a815585945089910162000320565b9250819262000312565b634e487b7160e01b87526022600452602487fd5b93607f169362000082565b634e487b7160e01b600052604160045260246000fd5b600080fdfe608080604052600436101561001357600080fd5b60003560e01c90816301ffc9a7146116cb5750806306fdde031461160c578063081812fc146115ee578063095ea7b31461147457806318160ddd1461145657806323b872dd146114325780632f745c591461138057806342842e0e1461134d5780634f6ccce7146112bc5780635be70c1f146112025780636352211e146111d257806370a08231146111a7578063715018a61461114a5780638da5cb5b1461112157806395d89b4114611016578063a22cb46514610f44578063a2d6c6da14610f11578063b88d4fde14610e66578063c87b56dd14610592578063d4e28c9c1461055b578063e985e9c514610505578063eb93406b1461021c578063ebf902cd146101f05763f2fde38b1461012757600080fd5b346101eb5760203660031901126101eb57610140611798565b610148611853565b6001600160a01b0390811690811561019757600a54826001600160601b0360a01b821617600a55167f8be0079c531659141344cd1fd0a4f28419497f9722a3daafe3b4186f6b6457e0600080a3005b60405162461bcd60e51b815260206004820152602660248201527f4f776e61626c653a206e6577206f776e657220697320746865207a65726f206160448201526564647265737360d01b6064820152608490fd5b600080fd5b346101eb5760203660031901126101eb57600435600052600d6020526020604060002054604051908152f35b346101eb5760003660031901126101eb57600e544210156104d157600b5461024381611f7b565b600b5560405190610253826117f9565b60008252331561048d57600081815260026020526040902054610282906001600160a01b031615155b15611f8a565b60085491816000526020926009845280604060002055600160401b81101561047757610392916102d8846102bf84600161038d9601600855611f44565b90919082549060031b91821b91600019901b1916179055565b6102e1336118ab565b3360005260068652604060002081600052865284604060002055846000526007865260406000205561032b61027c85600052600260205260018060a01b0360406000205416151590565b336000526003855260406000206001815401905583600052600285526040600020336001600160601b0360a01b825416179055833360007fddf252ad1be2c89b69c2b068fc378daa952ba7f163c4a11628f55a4df523b3ef8180a48333611d9f565b611a87565b6000194301904382116104615760405191838301904081523360601b60408401523060601b60548401524660688401528160888401526088835260c083019280841067ffffffffffffffff851117610477578360405251902081600052600c8452604060002060ff60f01b8260011a60f01b1660ff60f81b8360001a60f81b161760ff60e81b8360021a60e81b161760e81c62ffffff1982541617905560031a806032029060328204036104615760ff9004600901806009116104615781600052600d84526040600020558152f35b634e487b7160e01b600052601160045260246000fd5b634e487b7160e01b600052604160045260246000fd5b606460405162461bcd60e51b815260206004820152602060248201527f4552433732313a206d696e7420746f20746865207a65726f20616464726573736044820152fd5b60405162461bcd60e51b815260206004820152600c60248201526b444f4e45204d494e54494e4760a01b6044820152606490fd5b346101eb5760403660031901126101eb5761051e611798565b6105266117ae565b9060018060a01b03809116600052600560205260406000209116600052602052602060ff604060002054166040519015158152f35b346101eb5760203660031901126101eb57600435600052600c602052602060406000205460e81b6040519062ffffff60e81b168152f35b346101eb5760203660031901126101eb576004356000818152600260205260409020546001600160a01b031615610e38576105cc8161215f565b610612603060405180936f4f682050616e646173204d454d45202360801b60208301526106028151809260208686019101611750565b8101036010810184520182611815565b81600052600c60205261062c60406000205460e81b6129d9565b9180600052600d6020526106e6605c61064960406000205461215f565b946040519586917f54686973204f682050616e646173204d454d4520626f726e732077697468206760208401526e656e6573206f6620636f6c6f72202360881b60408401526106a2815180926020604f87019101611750565b82016901030b7321039b4bd32960b51b604f8201526106cb825180936020605985019101611750565b016221212160e81b605982015203603c810186520184611815565b6107cc6106f2826123ee565b6107c760a060405180937f3c73766720786d6c6e733d22687474703a2f2f7777772e77332e6f72672f323060208301527f30302f737667222077696474683d2233303022206865696768743d223330302260408301527f2076657273696f6e3d22312e312220786d6c6e733a786c696e6b3d226874747060608301527f3a2f2f7777772e77332e6f72672f313939392f786c696e6b223e00000000000060808301526107a8815180926020609a86019101611750565b8101651e17b9bb339f60d11b609a820152036080810184520182611815565b612008565b906107d6816122b3565b979199986108016107fb6107fb6107f58d9b959b9a979a99989961215f565b9d61215f565b9961215f565b996001600160a01b03906108149061196e565b169a6040519b8c67ffffffffffffffff60608281810110920111176104775760608d01604052602a8d5260408d6020369101378c5115610e2257603060208e01538c5160011015610e2257607860218e015360295b60018111610ddd5750610d99576040519e8f9e8f683d913730b6b2911d1160b91b6020820152815191826029830191602001916108a592611750565b01701116113232b9b1b934b83a34b7b7111d1160791b602982015281519182603a830191602001916108d692611750565b01603a81017f222c2265787465726e616c5f75726c223a2268747470733a2f2f6f6870616e649052605a81016c61732e636f6d2f746f6b656e2f60981b90528151918260678301916020019161092b92611750565b01606781017f222c2261747472696275746573223a5b7b2274726169745f74797065223a226c9052608781017f6566742065617220636f6c6f72222c2276616c7565223a22230000000000000090528151918260a08301916020019161099092611750565b019160a083017f227d2c7b2274726169745f74797065223a2272696768742065617220636f6c6f90526c72222c2276616c7565223a222360981b928360c08201528151918260cd830191602001916109e792611750565b0160cd81017f227d2c7b2274726169745f74797065223a2266616369616c206f75746c696e6590527120636f6c6f72222c2276616c7565223a222360701b60ed8201528151918260ff83019160200191610a4092611750565b0160ff81017f227d2c7b2274726169745f74797065223a226c6566742065796520636f6c6f7290526b222c2276616c7565223a222360a01b61011f82015282519061012b93828583019160200191610a9792611750565b019182017f227d2c7b2274726169745f74797065223a2272696768742065796520636f6c6f905261014b82015281519061015892828483019160200191610add92611750565b019081017f227d2c7b2274726169745f74797065223a226e6f736520636f6c6f72222c2276905267616c7565223a222360c01b61017882015281519061018092828483019160200191610b2f92611750565b019081017f227d2c7b2274726169745f74797065223a226d6f75746820636f6c6f72222c2290526876616c7565223a222360b81b6101a08201528151906101a992828483019160200191610b8292611750565b019081017f227d2c7b2274726169745f74797065223a226d6f7574682073697a65222c227690526630b63ab2911d1160c91b6101c98201528151906101d092828483019160200191610bd392611750565b019081017f227d2c7b2274726169745f74797065223a226561722073697a65222c2276616c9052653ab2911d101160d11b6101f08201528151906101f692828483019160200191610c2392611750565b019081017f227d2c7b2274726169745f74797065223a226e6f73652073697a65222c227661905266363ab2911d101160c91b61021682015281519061021d92828483019160200191610c7492611750565b01906c113eae961137bbb732b9111d1160991b9082015281519061022a92828483019160200191610ca492611750565b6b11161134b6b0b3b2911d101160a11b9101918201527f646174613a696d6167652f7376672b786d6c3b6261736536342c000000000000610236820152815161025092909190610cfc90839085840190602001611750565b019061227d60f01b90820152036102328101825261025201610d1e9082611815565b610d2790612008565b6040518091602082017f646174613a6170706c69636174696f6e2f6a736f6e3b6261736536342c000000905280519081603d84019160200191610d6992611750565b810103601d81018252603d01610d7f9082611815565b60405180916020825260208201610d9591611773565b0390f35b606460405162461bcd60e51b815260206004820152602060248201527f537472696e67733a20686578206c656e67746820696e73756666696369656e746044820152fd5b906010600f82161015610e22578d610e0e836f181899199a1a9b1b9c1cb0b131b232b360811b600f85161a926122a2565b5360041c9080156104615760001901610869565b634e487b7160e01b600052603260045260246000fd5b60405162461bcd60e51b815260206004820152600660248201526508595e1a5cdd60d21b6044820152606490fd5b346101eb5760803660031901126101eb57610e7f611798565b610e876117ae565b906064359060443567ffffffffffffffff83116101eb57366023840112156101eb57826004013593610eb885611837565b92610ec66040519485611815565b85845236602487870101116101eb576000602087610f0f98602461038d99018389013786010152610eff610efa8433611aab565b6119d2565b610f0a838383611b73565b611ebd565b005b346101eb5760203660031901126101eb57610d95610f306004356123ee565b604051918291602083526020830190611773565b346101eb5760403660031901126101eb57610f5d611798565b602435908115158092036101eb576001600160a01b031690338214610fd157336000526005602052604060002082600052602052604060002060ff1981541660ff83161790556040519081527f17307eab39ab6107e8899845ad3d59bd9653f200f220920489ca2b5937696c3160203392a3005b60405162461bcd60e51b815260206004820152601960248201527f4552433732313a20617070726f766520746f2063616c6c6572000000000000006044820152606490fd5b346101eb5760003660031901126101eb57604051600060019081549182811c91818416918215611117575b60209485851084146111015785879486865291826000146110e1575050600114611087575b5061107392500383611815565b610d95604051928284938452830190611773565b6000818152859250907fb10e2d527612073b26eecdfd717e6a320cf44b4afac2b0732d9fcbe2b7fa0cf65b8583106110c9575050611073935082010185611066565b805483890185015287945086939092019181016110b2565b60ff19168582015261107395151560051b85010192508791506110669050565b634e487b7160e01b600052602260045260246000fd5b92607f1692611041565b346101eb5760003660031901126101eb57600a546040516001600160a01b039091168152602090f35b346101eb5760003660031901126101eb57611163611853565b600a80546001600160a01b031981169091556000906001600160a01b03167f8be0079c531659141344cd1fd0a4f28419497f9722a3daafe3b4186f6b6457e08280a3005b346101eb5760203660031901126101eb5760206111ca6111c5611798565b6118ab565b604051908152f35b346101eb5760203660031901126101eb5760206111f060043561196e565b6040516001600160a01b039091168152f35b346101eb5760203660031901126101eb5761121e6004356122b3565b9590949196604099989994939451998a99610140808c528b0161124091611773565b8a810360208c015261125191611773565b89810360408b015261126291611773565b88810360608a015261127391611773565b878103608089015261128491611773565b86810360a088015261129591611773565b85810360c08701526112a691611773565b9260e08501526101008401526101208301520390f35b346101eb5760203660031901126101eb576004356008548110156112f3576112e5602091611f44565b90546040519160031b1c8152f35b60405162461bcd60e51b815260206004820152602c60248201527f455243373231456e756d657261626c653a20676c6f62616c20696e646578206f60448201526b7574206f6620626f756e647360a01b6064820152608490fd5b346101eb57610f0f61038d611361366117c4565b906040519261136f846117f9565b60008452610eff610efa8433611aab565b346101eb5760403660031901126101eb57611399611798565b602435906113a6816118ab565b8210156113d95760018060a01b031660005260066020526040600020906000526020526020604060002054604051908152f35b60405162461bcd60e51b815260206004820152602b60248201527f455243373231456e756d657261626c653a206f776e657220696e646578206f7560448201526a74206f6620626f756e647360a81b6064820152608490fd5b346101eb57610f0f611443366117c4565b91611451610efa8433611aab565b611b73565b346101eb5760003660031901126101eb576020600854604051908152f35b346101eb5760403660031901126101eb5761148d611798565b602435906001600160a01b0380806114a48561196e565b1692169180831461159f5780331490811561157a575b501561150f57600083815260046020526040902080546001600160a01b031916831790556114e78361196e565b167f8c5be1e5ebec7d5bd14f71427d1e84f3dd0314c0f7b2291e5b200ac8c7c3b925600080a4005b60405162461bcd60e51b815260206004820152603d60248201527f4552433732313a20617070726f76652063616c6c6572206973206e6f7420746f60448201527f6b656e206f776e6572206f7220617070726f76656420666f7220616c6c0000006064820152608490fd5b9050600052600560205260406000203360005260205260ff60406000205416846114ba565b60405162461bcd60e51b815260206004820152602160248201527f4552433732313a20617070726f76616c20746f2063757272656e74206f776e656044820152603960f91b6064820152608490fd5b346101eb5760203660031901126101eb5760206111f0600435611994565b346101eb5760003660031901126101eb576040516000805490600182811c918184169182156116c1575b60209485851084146111015785879486865291826000146110e1575050600114611667575061107392500383611815565b6000808052859250907f290decd9548b62a8d60345a988386fc84ba6bc95484008f6362f93160ef3e5635b8583106116a9575050611073935082010185611066565b80548389018501528794508693909201918101611692565b92607f1692611636565b346101eb5760203660031901126101eb576004359063ffffffff60e01b82168092036101eb5760209163780e9d6360e01b811490811561170d575b5015158152f35b6380ac58cd60e01b81149150811561173f575b811561172e575b5083611706565b6301ffc9a760e01b14905083611727565b635b5e139f60e01b81149150611720565b60005b8381106117635750506000910152565b8181015183820152602001611753565b9060209161178c81518092818552858086019101611750565b601f01601f1916010190565b600435906001600160a01b03821682036101eb57565b602435906001600160a01b03821682036101eb57565b60609060031901126101eb576001600160a01b039060043582811681036101eb579160243590811681036101eb579060443590565b6020810190811067ffffffffffffffff82111761047757604052565b90601f8019910116810190811067ffffffffffffffff82111761047757604052565b67ffffffffffffffff811161047757601f01601f191660200190565b600a546001600160a01b0316330361186757565b606460405162461bcd60e51b815260206004820152602060248201527f4f776e61626c653a2063616c6c6572206973206e6f7420746865206f776e65726044820152fd5b6001600160a01b031680156118cb57600052600360205260406000205490565b60405162461bcd60e51b815260206004820152602960248201527f4552433732313a2061646472657373207a65726f206973206e6f7420612076616044820152683634b21037bbb732b960b91b6064820152608490fd5b1561192957565b60405162461bcd60e51b815260206004820152601860248201527f4552433732313a20696e76616c696420746f6b656e20494400000000000000006044820152606490fd5b6000908152600260205260409020546001600160a01b0316611991811515611922565b90565b6000818152600260205260409020546119b7906001600160a01b03161515611922565b6000908152600460205260409020546001600160a01b031690565b156119d957565b60405162461bcd60e51b815260206004820152602d60248201527f4552433732313a2063616c6c6572206973206e6f7420746f6b656e206f776e6560448201526c1c881bdc88185c1c1c9bdd9959609a1b6064820152608490fd5b60809060208152603260208201527f4552433732313a207472616e7366657220746f206e6f6e20455243373231526560408201527131b2b4bb32b91034b6b83632b6b2b73a32b960711b60608201520190565b15611a8e57565b60405162461bcd60e51b815280611aa760048201611a34565b0390fd5b906001600160a01b038080611abf8461196e565b16931691838314938415611af2575b508315611adc575b50505090565b611ae891929350611994565b1614388080611ad6565b909350600052600560205260406000208260005260205260ff604060002054169238611ace565b15611b2057565b60405162461bcd60e51b815260206004820152602560248201527f4552433732313a207472616e736665722066726f6d20696e636f72726563742060448201526437bbb732b960d91b6064820152608490fd5b611b9791611b808461196e565b6001600160a01b0393848416939185168414611b19565b838216938415611d4e57839182611cab575090506008549085600052600960205281604060002055600160401b82101561047757611bfd92611be4876102bf856001899701600855611f44565b828603611c78575b50611bf68661196e565b1614611b19565b7fddf252ad1be2c89b69c2b068fc378daa952ba7f163c4a11628f55a4df523b3ef60008481526004602052604081206001600160601b0360a01b9081815416905583825260036020526040822060001981540190558482526040822060018154019055858252600260205284604083209182541617905580a4565b611c81906118ab565b60406000878152600660205281812083825260205288828220558881526007602052205538611bec565b858303611cbd575b50611bfd92611be4565b611cc89192506118ab565b60001981019190821161046157611bfd9284926000908882526020906007825260409182842054828103611d17575b508a84528383812055868452600681528284209184525281205592611cb3565b8785526006825283852083865282528385205488865260068352848620828752835280858720558552600782528385205538611cf7565b60405162461bcd60e51b8152602060048201526024808201527f4552433732313a207472616e7366657220746f20746865207a65726f206164646044820152637265737360e01b6064820152608490fd5b91929091803b15611eb457611dec936040519081630a85bd0160e11b9384825233600483015260009687602484015260448301526080606483015281878160209a8b966084830190611773565b03926001600160a01b03165af1849181611e70575b50611e5f575050503d600014611e57573d611e1b81611837565b90611e296040519283611815565b81528091833d92013e5b80519182611e545760405162461bcd60e51b815280611aa760048201611a34565b01fd5b506060611e33565b6001600160e01b0319161492509050565b9091508581813d8311611ead575b611e888183611815565b81010312611ea957516001600160e01b031981168103611ea9579038611e01565b8480fd5b503d611e7e565b50915050600190565b92939190803b15611f3a57611f0f946040518092630a85bd0160e11b9485835233600484015260018060a01b03809816602484015260448301526080606483015281806020998a956084830190611773565b03916000988991165af1849181611e705750611e5f575050503d600014611e57573d611e1b81611837565b5050915050600190565b600854811015610e225760086000527ff3f7a9fe364faab93b216da50a3214154f22a0a2b415b23a84c8169e8b636ee30190600090565b60001981146104615760010190565b15611f9157565b60405162461bcd60e51b815260206004820152601c60248201527f4552433732313a20746f6b656e20616c7265616479206d696e746564000000006044820152606490fd5b90611fe082611837565b611fed6040519182611815565b8281528092611ffe601f1991611837565b0190602036910137565b80511561214b576040516060810181811067ffffffffffffffff82111761047757604052604081527f4142434445464748494a4b4c4d4e4f505152535455565758595a61626364656660208201527f6768696a6b6c6d6e6f707172737475767778797a303132333435363738392b2f60408201528151600292838201809211610461576003918290046001600160fe1b0381168103610461576120ae908594951b611fd6565b936020850193829183518401925b8381106120fa57505050505106806001146120e7576002146120dc575090565b603d90600019015390565b50603d9081600019820153600119015390565b85600491979293949701918251600190603f9082828260121c16880101518453828282600c1c16880101518385015382828260061c16880101518885015316850101518782015301959291906120bc565b50604051612158816117f9565b6000815290565b806000917a184f03e93ff9f4daa797ed6e38ed64bf6a1f01000000000000000080821015612294575b506d04ee2d6d415b85acef810000000080831015612285575b50662386f26fc1000080831015612276575b506305f5e10080831015612267575b5061271080831015612258575b506064821015612248575b600a8092101561223e575b6001908160216121f6828701611fd6565b95860101905b612208575b5050505090565b600019019083906f181899199a1a9b1b9c1cb0b131b232b360811b8282061a835304918215612239579190826121fc565b612201565b91600101916121e5565b91906064600291049101916121da565b600491939204910191386121cf565b600891939204910191386121c2565b601091939204910191386121b3565b602091939204910191386121a1565b604093508104915038612188565b908151811015610e22570160200190565b90600090828252600c602052604082205462ffffff81169062ffffff60e81b916122e28360e893841b166129d9565b958552600d6020526040852054938460011c6014018060141161239857958560031c60110190816011116123845750946123248562f5f7e38501861b166129d9565b966123378662ddd5ed8601871b166129d9565b9661238161234d8862bcb5dd8801891b166129d9565b9761236081629079a889018a1b166129d9565b97628d64a861237783626250688b01841b166129d9565b9801901b166129d9565b93565b634e487b7160e01b81526011600452602490fd5b634e487b7160e01b87526011600452602487fd5b7f222073686170652d72656e646572696e673d2267656f6d65747269635072656381526f34b9b4b7b7111f1e17b1b4b931b6329f60811b602082015260300190565b6123f7906122b3565b97989192956124088298969261215f565b976124129061215f565b9861241c9061215f565b936124269061215f565b956040519a8b9a8b6020809c82828094017f3c636972636c652063783d223930222063793d2238302220723d2200000000009052815192603b84920192019161246e92611750565b8d0168222066696c6c3d222360b81b9788603b830152805180936044840192019161249892611750565b016044016124a5906123ac565b7f3c636972636c652063783d22323130222063793d2238302220723d22000000008152815191828d601c84019201916124dd92611750565b0185601c820152815191828c602584019201916124f992611750565b01602501612506906123ac565b7f3c636972636c652063783d22313530222063793d223135302220723d22393722815269207374726f6b653d222360b01b8a820152815191612550908390602a8401908d01611750565b7f22207374726f6b652d77696474683d22362e3338222066696c6c3d2277686974602a92909101918201527f65222073686170652d72656e646572696e673d2267656f6d6574726963507265604a8201526831b4b9b4b7b711179f60b91b606a8201527f3c636972636c652063783d22313135222063793d223132352220723d2232372e60738201526a3034222066696c6c3d222360a81b6093820152815191612602908390609e8401908c01611750565b01609e0161260f906123ac565b7f3c636972636c652063783d22313135222063793d223132352220723d2231302e81527f3332222066696c6c3d227768697465222073686170652d72656e646572696e67888201527f3d2267656f6d6574726963507265636973696f6e223e3c2f636972636c653e00604082018190527f3c636972636c652063783d22313835222063793d223132352220723d2232372e605f8301527f3034222066696c6c3d22626c61636b222073686170652d72656e646572696e67607f830152609f8201527f3c636972636c652063783d22313835222063793d223132352220723d2231302e60be8201526a3332222066696c6c3d222360a81b60de8201528151888301929161271f8260e9830186611750565b7f222073686170652d72656e646572696e673d2267656f6d65747269635072656360e992909101918201526634b9b4b7b7111f60c91b6101098201527f3c616e696d617465206174747269627574654e616d653d2266696c6c22207661610110820152666c7565733d222360c81b610130820152815161013792916127a78285830187611750565b01918201653b7265643b2360d01b9052519061013d92828483016127ca92611750565b7f22206475723d2231732220726570656174436f756e743d22696e646566696e69910191820152643a3291179f60d91b61015d820152681e17b1b4b931b6329f60b91b6101628201527f3c636972636c652063783d22313835222063793d223132352220723d22362e3361016b8201527f38222066696c6c3d22626c61636b222073686170652d72656e646572696e673d61018b8201527f2267656f6d6574726963507265636973696f6e223e3c2f636972636c653e00006101ab8201527f3c636972636c652063783d22313530222063793d223137302220723d220000006101c982015282516101e6939091906128c9908390868401908b01611750565b01918201528151906101ef9282878584019201916128e692611750565b01016128f1906123ac565b7f3c656c6c697073652063783d22313530222063793d22323130222072783d220081528151918285601f840192019161292992611750565b0190601f82017f222072793d22392e303922207374796c653d2266696c6c3a23000000000000009052805180936038840192019161296692611750565b01603881017f3b7374726f6b653a626c61636b3b7374726f6b652d77696474683a332e3934229052605881017f2073686170652d72656e646572696e673d2267656f6d6574726963507265636990526639b4b7b711179f60c91b607882015203605f81018252607f016119919082611815565b604051906040820182811067ffffffffffffffff82111761047757604052600682526020368184013760005b60038110612a1257505090565b600f82821a8181169060109081831015610e225760019385851b948686046002148715171561046157850180861161046157612a656f181899199a1a9b1b9c1cb0b131b232b360811b80961a918a6122a2565b53600491821c1691821015612a925750612a8d939291612a87911a91866122a2565b53611f7b565b612a05565b603290634e487b7160e01b6000525260246000fdfea26469706673582212209e675e1bec6e08bf4e6bb812bfe9c7dc7e4c09686a2d1297097cb387751a6e6b64736f6c63430008140033",
  "devdoc": {
    "events": {
      "Approval(address,address,uint256)": {
        "details": "Emitted when `owner` enables `approved` to manage the `tokenId` token."
      },
      "ApprovalForAll(address,address,bool)": {
        "details": "Emitted when `owner` enables or disables (`approved`) `operator` to manage all of its assets."
      },
      "Transfer(address,address,uint256)": {
        "details": "Emitted when `tokenId` token is transferred from `from` to `to`."
      }
    },
    "kind": "dev",
    "methods": {
      "approve(address,uint256)": {
        "details": "See {IERC721-approve}."
      },
      "balanceOf(address)": {
        "details": "See {IERC721-balanceOf}."
      },
      "getApproved(uint256)": {
        "details": "See {IERC721-getApproved}."
      },
      "isApprovedForAll(address,address)": {
        "details": "See {IERC721-isApprovedForAll}."
      },
      "name()": {
        "details": "See {IERC721Metadata-name}."
      },
      "owner()": {
        "details": "Returns the address of the current owner."
      },
      "ownerOf(uint256)": {
        "details": "See {IERC721-ownerOf}."
      },
      "renounceOwnership()": {
        "details": "Leaves the contract without owner. It will not be possible to call `onlyOwner` functions. Can only be called by the current owner. NOTE: Renouncing ownership will leave the contract without an owner, thereby disabling any functionality that is only available to the owner."
      },
      "safeTransferFrom(address,address,uint256)": {
        "details": "See {IERC721-safeTransferFrom}."
      },
      "safeTransferFrom(address,address,uint256,bytes)": {
        "details": "See {IERC721-safeTransferFrom}."
      },
      "setApprovalForAll(address,bool)": {
        "details": "See {IERC721-setApprovalForAll}."
      },
      "supportsInterface(bytes4)": {
        "details": "See {IERC165-supportsInterface}."
      },
      "symbol()": {
        "details": "See {IERC721Metadata-symbol}."
      },
      "tokenByIndex(uint256)": {
        "details": "See {IERC721Enumerable-tokenByIndex}."
      },
      "tokenOfOwnerByIndex(address,uint256)": {
        "details": "See {IERC721Enumerable-tokenOfOwnerByIndex}."
      },
      "totalSupply()": {
        "details": "See {IERC721Enumerable-totalSupply}."
      },
      "transferFrom(address,address,uint256)": {
        "details": "See {IERC721-transferFrom}."
      },
      "transferOwnership(address)": {
        "details": "Transfers ownership of the contract to a new account (`newOwner`). Can only be called by the current owner."
      }
    },
    "version": 1
  },
  "userdoc": {
    "kind": "user",
    "methods": {},
    "version": 1
  },
  "storageLayout": {
    "storage": [
      {
        "astId": 138,
        "contract": "contracts/OhPandaMEME.sol:OhPandaMEME",
        "label": "_name",
        "offset": 0,
        "slot": "0",
        "type": "t_string_storage"
      },
      {
        "astId": 140,
        "contract": "contracts/OhPandaMEME.sol:OhPandaMEME",
        "label": "_symbol",
        "offset": 0,
        "slot": "1",
        "type": "t_string_storage"
      },
      {
        "astId": 144,
        "contract": "contracts/OhPandaMEME.sol:OhPandaMEME",
        "label": "_owners",
        "offset": 0,
        "slot": "2",
        "type": "t_mapping(t_uint256,t_address)"
      },
      {
        "astId": 148,
        "contract": "contracts/OhPandaMEME.sol:OhPandaMEME",
        "label": "_balances",
        "offset": 0,
        "slot": "3",
        "type": "t_mapping(t_address,t_uint256)"
      },
      {
        "astId": 152,
        "contract": "contracts/OhPandaMEME.sol:OhPandaMEME",
        "label": "_tokenApprovals",
        "offset": 0,
        "slot": "4",
        "type": "t_mapping(t_uint256,t_address)"
      },
      {
        "astId": 158,
        "contract": "contracts/OhPandaMEME.sol:OhPandaMEME",
        "label": "_operatorApprovals",
        "offset": 0,
        "slot": "5",
        "type": "t_mapping(t_address,t_mapping(t_address,t_bool))"
      },
      {
        "astId": 1188,
        "contract": "contracts/OhPandaMEME.sol:OhPandaMEME",
        "label": "_ownedTokens",
        "offset": 0,
        "slot": "6",
        "type": "t_mapping(t_address,t_mapping(t_uint256,t_uint256))"
      },
      {
        "astId": 1192,
        "contract": "contracts/OhPandaMEME.sol:OhPandaMEME",
        "label": "_ownedTokensIndex",
        "offset": 0,
        "slot": "7",
        "type": "t_mapping(t_uint256,t_uint256)"
      },
      {
        "astId": 1195,
        "contract": "contracts/OhPandaMEME.sol:OhPandaMEME",
        "label": "_allTokens",
        "offset": 0,
        "slot": "8",
        "type": "t_array(t_uint256)dyn_storage"
      },
      {
        "astId": 1199,
        "contract": "contracts/OhPandaMEME.sol:OhPandaMEME",
        "label": "_allTokensIndex",
        "offset": 0,
        "slot": "9",
        "type": "t_mapping(t_uint256,t_uint256)"
      },
      {
        "astId": 7,
        "contract": "contracts/OhPandaMEME.sol:OhPandaMEME",
        "label": "_owner",
        "offset": 0,
        "slot": "10",
        "type": "t_address"
      },
      {
        "astId": 3243,
        "contract": "contracts/OhPandaMEME.sol:OhPandaMEME",
        "label": "_nextTokenId",
        "offset": 0,
        "slot": "11",
        "type": "t_uint256"
      },
      {
        "astId": 3247,
        "contract": "contracts/OhPandaMEME.sol:OhPandaMEME",
        "label": "color",
        "offset": 0,
        "slot": "12",
        "type": "t_mapping(t_uint256,t_bytes3)"
      },
      {
        "astId": 3251,
        "contract": "contracts/OhPandaMEME.sol:OhPandaMEME",
        "label": "mouthWidth",
        "offset": 0,
        "slot": "13",
        "type": "t_mapping(t_uint256,t_uint256)"
      },
      {
        "astId": 3257,
        "contract": "contracts/OhPandaMEME.sol:OhPandaMEME",
        "label": "mintDeadline",
        "offset": 0,
        "slot": "14",
        "type": "t_uint256"
      }
    ],
    "types": {
      "t_address": {
        "encoding": "inplace",
        "label": "address",
        "numberOfBytes": "20"
      },
      "t_array(t_uint256)dyn_storage": {
        "base": "t_uint256",
        "encoding": "dynamic_array",
        "label": "uint256[]",
        "numberOfBytes": "32"
      },
      "t_bool": {
        "encoding": "inplace",
        "label": "bool",
        "numberOfBytes": "1"
      },
      "t_bytes3": {
        "encoding": "inplace",
        "label": "bytes3",
        "numberOfBytes": "3"
      },
      "t_mapping(t_address,t_bool)": {
        "encoding": "mapping",
        "key": "t_address",
        "label": "mapping(address => bool)",
        "numberOfBytes": "32",
        "value": "t_bool"
      },
      "t_mapping(t_address,t_mapping(t_address,t_bool))": {
        "encoding": "mapping",
        "key": "t_address",
        "label": "mapping(address => mapping(address => bool))",
        "numberOfBytes": "32",
        "value": "t_mapping(t_address,t_bool)"
      },
      "t_mapping(t_address,t_mapping(t_uint256,t_uint256))": {
        "encoding": "mapping",
        "key": "t_address",
        "label": "mapping(address => mapping(uint256 => uint256))",
        "numberOfBytes": "32",
        "value": "t_mapping(t_uint256,t_uint256)"
      },
      "t_mapping(t_address,t_uint256)": {
        "encoding": "mapping",
        "key": "t_address",
        "label": "mapping(address => uint256)",
        "numberOfBytes": "32",
        "value": "t_uint256"
      },
      "t_mapping(t_uint256,t_address)": {
        "encoding": "mapping",
        "key": "t_uint256",
        "label": "mapping(uint256 => address)",
        "numberOfBytes": "32",
        "value": "t_address"
      },
      "t_mapping(t_uint256,t_bytes3)": {
        "encoding": "mapping",
        "key": "t_uint256",
        "label": "mapping(uint256 => bytes3)",
        "numberOfBytes": "32",
        "value": "t_bytes3"
      },
      "t_mapping(t_uint256,t_uint256)": {
        "encoding": "mapping",
        "key": "t_uint256",
        "label": "mapping(uint256 => uint256)",
        "numberOfBytes": "32",
        "value": "t_uint256"
      },
      "t_string_storage": {
        "encoding": "bytes",
        "label": "string",
        "numberOfBytes": "32"
      },
      "t_uint256": {
        "encoding": "inplace",
        "label": "uint256",
        "numberOfBytes": "32"
      }
    }
  }
}